{
  "contractName": "Identities",
  "abi": [
    {
      "inputs": [],
      "payable": false,
      "stateMutability": "nonpayable",
      "type": "constructor"
    },
    {
      "anonymous": false,
      "inputs": [
        {
          "indexed": true,
          "internalType": "address",
          "name": "IdentityAdd",
          "type": "address"
        },
        {
          "indexed": false,
          "internalType": "string",
          "name": "firstname",
          "type": "string"
        },
        {
          "indexed": false,
          "internalType": "string",
          "name": "lastname",
          "type": "string"
        },
        {
          "indexed": false,
          "internalType": "string",
          "name": "nickname",
          "type": "string"
        },
        {
          "indexed": false,
          "internalType": "string",
          "name": "ipfsAvatarHash",
          "type": "string"
        },
        {
          "indexed": false,
          "internalType": "uint256",
          "name": "index",
          "type": "uint256"
        }
      ],
      "name": "LogID",
      "type": "event"
    },
    {
      "anonymous": false,
      "inputs": [
        {
          "indexed": true,
          "internalType": "address",
          "name": "IdentityAdd",
          "type": "address"
        },
        {
          "indexed": false,
          "internalType": "string",
          "name": "name",
          "type": "string"
        },
        {
          "indexed": false,
          "internalType": "string",
          "name": "url",
          "type": "string"
        }
      ],
      "name": "LogSocialLink",
      "type": "event"
    },
    {
      "constant": true,
      "inputs": [],
      "name": "owner",
      "outputs": [
        {
          "internalType": "address",
          "name": "",
          "type": "address"
        }
      ],
      "payable": false,
      "stateMutability": "view",
      "type": "function"
    },
    {
      "constant": true,
      "inputs": [
        {
          "internalType": "address",
          "name": "id_add",
          "type": "address"
        }
      ],
      "name": "identityExist",
      "outputs": [
        {
          "internalType": "bool",
          "name": "isIndeed",
          "type": "bool"
        }
      ],
      "payable": false,
      "stateMutability": "view",
      "type": "function"
    },
    {
      "constant": false,
      "inputs": [
        {
          "internalType": "string",
          "name": "_firstname",
          "type": "string"
        },
        {
          "internalType": "string",
          "name": "_lastname",
          "type": "string"
        },
        {
          "internalType": "string",
          "name": "_nickname",
          "type": "string"
        },
        {
          "internalType": "string",
          "name": "_ipfsAvatarHash",
          "type": "string"
        }
      ],
      "name": "setIdentity",
      "outputs": [
        {
          "internalType": "bool",
          "name": "success",
          "type": "bool"
        }
      ],
      "payable": false,
      "stateMutability": "nonpayable",
      "type": "function"
    },
    {
      "constant": true,
      "inputs": [
        {
          "internalType": "address",
          "name": "id_add",
          "type": "address"
        }
      ],
      "name": "getIdentity",
      "outputs": [
        {
          "internalType": "string",
          "name": "firstname",
          "type": "string"
        },
        {
          "internalType": "string",
          "name": "lastname",
          "type": "string"
        },
        {
          "internalType": "string",
          "name": "nickname",
          "type": "string"
        },
        {
          "internalType": "string",
          "name": "ipfsAvatarHash",
          "type": "string"
        },
        {
          "internalType": "uint256",
          "name": "index",
          "type": "uint256"
        }
      ],
      "payable": false,
      "stateMutability": "view",
      "type": "function"
    },
    {
      "constant": true,
      "inputs": [
        {
          "internalType": "address",
          "name": "id_add",
          "type": "address"
        }
      ],
      "name": "getfirstname",
      "outputs": [
        {
          "internalType": "string",
          "name": "",
          "type": "string"
        }
      ],
      "payable": false,
      "stateMutability": "view",
      "type": "function"
    },
    {
      "constant": true,
      "inputs": [],
      "name": "getmsgsender",
      "outputs": [
        {
          "internalType": "address",
          "name": "",
          "type": "address"
        }
      ],
      "payable": false,
      "stateMutability": "view",
      "type": "function"
    },
    {
      "constant": true,
      "inputs": [
        {
          "internalType": "address",
          "name": "id_add",
          "type": "address"
        }
      ],
      "name": "getlastname",
      "outputs": [
        {
          "internalType": "string",
          "name": "",
          "type": "string"
        }
      ],
      "payable": false,
      "stateMutability": "view",
      "type": "function"
    },
    {
      "constant": true,
      "inputs": [
        {
          "internalType": "address",
          "name": "id_add",
          "type": "address"
        }
      ],
      "name": "getnickname",
      "outputs": [
        {
          "internalType": "string",
          "name": "",
          "type": "string"
        }
      ],
      "payable": false,
      "stateMutability": "view",
      "type": "function"
    },
    {
      "constant": true,
      "inputs": [
        {
          "internalType": "address",
          "name": "id_add",
          "type": "address"
        }
      ],
      "name": "getIpfsAvatarHash",
      "outputs": [
        {
          "internalType": "string",
          "name": "",
          "type": "string"
        }
      ],
      "payable": false,
      "stateMutability": "view",
      "type": "function"
    },
    {
      "constant": true,
      "inputs": [
        {
          "internalType": "address",
          "name": "id_add",
          "type": "address"
        }
      ],
      "name": "getIndex",
      "outputs": [
        {
          "internalType": "uint256",
          "name": "",
          "type": "uint256"
        }
      ],
      "payable": false,
      "stateMutability": "view",
      "type": "function"
    },
    {
      "constant": false,
      "inputs": [
        {
          "internalType": "address",
          "name": "id_add",
          "type": "address"
        },
        {
          "internalType": "string",
          "name": "_url",
          "type": "string"
        },
        {
          "internalType": "string",
          "name": "_name",
          "type": "string"
        }
      ],
      "name": "addSocialLink",
      "outputs": [],
      "payable": false,
      "stateMutability": "nonpayable",
      "type": "function"
    },
    {
      "constant": true,
      "inputs": [
        {
          "internalType": "address",
          "name": "id_add",
          "type": "address"
        },
        {
          "internalType": "string",
          "name": "_name",
          "type": "string"
        }
      ],
      "name": "getSocialLinkByName",
      "outputs": [
        {
          "internalType": "string",
          "name": "name",
          "type": "string"
        },
        {
          "internalType": "string",
          "name": "url",
          "type": "string"
        }
      ],
      "payable": false,
      "stateMutability": "view",
      "type": "function"
    },
    {
      "constant": false,
      "inputs": [
        {
          "internalType": "address",
          "name": "id_add",
          "type": "address"
        },
        {
          "internalType": "string",
          "name": "_name",
          "type": "string"
        }
      ],
      "name": "removeSocialLink",
      "outputs": [],
      "payable": false,
      "stateMutability": "nonpayable",
      "type": "function"
    },
    {
      "constant": false,
      "inputs": [
        {
          "internalType": "address",
          "name": "id_add",
          "type": "address"
        },
        {
          "internalType": "string",
          "name": "_name",
          "type": "string"
        },
        {
          "internalType": "string",
          "name": "_url",
          "type": "string"
        }
      ],
      "name": "updateSocialLink",
      "outputs": [],
      "payable": false,
      "stateMutability": "nonpayable",
      "type": "function"
    }
  ],
  "bytecode": "0x608060405234801561001057600080fd5b50336000806101000a81548173ffffffffffffffffffffffffffffffffffffffff021916908373ffffffffffffffffffffffffffffffffffffffff160217905550612b71806100606000396000f3fe608060405234801561001057600080fd5b50600436106100ea5760003560e01c80638da5cb5b1161008c578063cb69f01a11610066578063cb69f01a14610b83578063df27bd8714610cf5578063e2905eae14610db2578063f4fde0da14610e8d576100ea565b80638da5cb5b14610a24578063b31610db14610a6e578063be788cb714610ac6576100ea565b80631a3fcede116100c85780631a3fcede146106b95780632fea7b81146107155780633727c0b61461091d57806366183ced14610967576100ea565b806304faac01146100ef578063054afc47146102af5780630f2f560414610421575b600080fd5b6101c86004803603604081101561010557600080fd5b81019080803573ffffffffffffffffffffffffffffffffffffffff1690602001909291908035906020019064010000000081111561014257600080fd5b82018360208201111561015457600080fd5b8035906020019184600183028401116401000000008311171561017657600080fd5b91908080601f016020809104026020016040519081016040528093929190818152602001838380828437600081840152601f19601f820116905080830192505050505050509192919290505050610f4a565b604051808060200180602001838103835285818151815260200191508051906020019080838360005b8381101561020c5780820151818401526020810190506101f1565b50505050905090810190601f1680156102395780820380516001836020036101000a031916815260200191505b50838103825284818151815260200191508051906020019080838360005b83811015610272578082015181840152602081019050610257565b50505050905090810190601f16801561029f5780820380516001836020036101000a031916815260200191505b5094505050505060405180910390f35b61041f600480360360608110156102c557600080fd5b81019080803573ffffffffffffffffffffffffffffffffffffffff1690602001909291908035906020019064010000000081111561030257600080fd5b82018360208201111561031457600080fd5b8035906020019184600183028401116401000000008311171561033657600080fd5b91908080601f016020809104026020016040519081016040528093929190818152602001838380828437600081840152601f19601f8201169050808301925050505050505091929192908035906020019064010000000081111561039957600080fd5b8201836020820111156103ab57600080fd5b803590602001918460018302840111640100000000831117156103cd57600080fd5b91908080601f016020809104026020016040519081016040528093929190818152602001838380828437600081840152601f19601f8201169050808301925050505050505091929192905050506112a9565b005b61069f6004803603608081101561043757600080fd5b810190808035906020019064010000000081111561045457600080fd5b82018360208201111561046657600080fd5b8035906020019184600183028401116401000000008311171561048857600080fd5b91908080601f016020809104026020016040519081016040528093929190818152602001838380828437600081840152601f19601f820116905080830192505050505050509192919290803590602001906401000000008111156104eb57600080fd5b8201836020820111156104fd57600080fd5b8035906020019184600183028401116401000000008311171561051f57600080fd5b91908080601f016020809104026020016040519081016040528093929190818152602001838380828437600081840152601f19601f8201169050808301925050505050505091929192908035906020019064010000000081111561058257600080fd5b82018360208201111561059457600080fd5b803590602001918460018302840111640100000000831117156105b657600080fd5b91908080601f016020809104026020016040519081016040528093929190818152602001838380828437600081840152601f19601f8201169050808301925050505050505091929192908035906020019064010000000081111561061957600080fd5b82018360208201111561062b57600080fd5b8035906020019184600183028401116401000000008311171561064d57600080fd5b91908080601f016020809104026020016040519081016040528093929190818152602001838380828437600081840152601f19601f820116905080830192505050505050509192919290505050611608565b604051808215151515815260200191505060405180910390f35b6106fb600480360360208110156106cf57600080fd5b81019080803573ffffffffffffffffffffffffffffffffffffffff169060200190929190505050611bf6565b604051808215151515815260200191505060405180910390f35b6107576004803603602081101561072b57600080fd5b81019080803573ffffffffffffffffffffffffffffffffffffffff169060200190929190505050611cbe565b604051808060200180602001806020018060200186815260200185810385528a818151815260200191508051906020019080838360005b838110156107a957808201518184015260208101905061078e565b50505050905090810190601f1680156107d65780820380516001836020036101000a031916815260200191505b50858103845289818151815260200191508051906020019080838360005b8381101561080f5780820151818401526020810190506107f4565b50505050905090810190601f16801561083c5780820380516001836020036101000a031916815260200191505b50858103835288818151815260200191508051906020019080838360005b8381101561087557808201518184015260208101905061085a565b50505050905090810190601f1680156108a25780820380516001836020036101000a031916815260200191505b50858103825287818151815260200191508051906020019080838360005b838110156108db5780820151818401526020810190506108c0565b50505050905090810190601f1680156109085780820380516001836020036101000a031916815260200191505b50995050505050505050505060405180910390f35b61092561209c565b604051808273ffffffffffffffffffffffffffffffffffffffff1673ffffffffffffffffffffffffffffffffffffffff16815260200191505060405180910390f35b6109a96004803603602081101561097d57600080fd5b81019080803573ffffffffffffffffffffffffffffffffffffffff1690602001909291905050506120a4565b6040518080602001828103825283818151815260200191508051906020019080838360005b838110156109e95780820151818401526020810190506109ce565b50505050905090810190601f168015610a165780820380516001836020036101000a031916815260200191505b509250505060405180910390f35b610a2c61219c565b604051808273ffffffffffffffffffffffffffffffffffffffff1673ffffffffffffffffffffffffffffffffffffffff16815260200191505060405180910390f35b610ab060048036036020811015610a8457600080fd5b81019080803573ffffffffffffffffffffffffffffffffffffffff1690602001909291905050506121c1565b6040518082815260200191505060405180910390f35b610b0860048036036020811015610adc57600080fd5b81019080803573ffffffffffffffffffffffffffffffffffffffff169060200190929190505050612221565b6040518080602001828103825283818151815260200191508051906020019080838360005b83811015610b48578082015181840152602081019050610b2d565b50505050905090810190601f168015610b755780820380516001836020036101000a031916815260200191505b509250505060405180910390f35b610cf360048036036060811015610b9957600080fd5b81019080803573ffffffffffffffffffffffffffffffffffffffff16906020019092919080359060200190640100000000811115610bd657600080fd5b820183602082011115610be857600080fd5b80359060200191846001830284011164010000000083111715610c0a57600080fd5b91908080601f016020809104026020016040519081016040528093929190818152602001838380828437600081840152601f19601f82011690508083019250505050505050919291929080359060200190640100000000811115610c6d57600080fd5b820183602082011115610c7f57600080fd5b80359060200191846001830284011164010000000083111715610ca157600080fd5b91908080601f016020809104026020016040519081016040528093929190818152602001838380828437600081840152601f19601f820116905080830192505050505050509192919290505050612319565b005b610d3760048036036020811015610d0b57600080fd5b81019080803573ffffffffffffffffffffffffffffffffffffffff169060200190929190505050612629565b6040518080602001828103825283818151815260200191508051906020019080838360005b83811015610d77578082015181840152602081019050610d5c565b50505050905090810190601f168015610da45780820380516001836020036101000a031916815260200191505b509250505060405180910390f35b610e8b60048036036040811015610dc857600080fd5b81019080803573ffffffffffffffffffffffffffffffffffffffff16906020019092919080359060200190640100000000811115610e0557600080fd5b820183602082011115610e1757600080fd5b80359060200191846001830284011164010000000083111715610e3957600080fd5b91908080601f016020809104026020016040519081016040528093929190818152602001838380828437600081840152601f19601f820116905080830192505050505050509192919290505050612721565b005b610ecf60048036036020811015610ea357600080fd5b81019080803573ffffffffffffffffffffffffffffffffffffffff16906020019092919050505061291f565b6040518080602001828103825283818151815260200191508051906020019080838360005b83811015610f0f578082015181840152602081019050610ef4565b50505050905090810190601f168015610f3c5780820380516001836020036101000a031916815260200191505b509250505060405180910390f35b6060808383600160008373ffffffffffffffffffffffffffffffffffffffff1673ffffffffffffffffffffffffffffffffffffffff168152602001908152602001600020600501816040518082805190602001908083835b60208310610fc55780518252602082019150602081019050602083039250610fa2565b6001836020036101000a038019825116818451168082178552505050505050905001915050908152602001604051809103902060020160009054906101000a900460ff1661101257600080fd5b600160008773ffffffffffffffffffffffffffffffffffffffff1673ffffffffffffffffffffffffffffffffffffffff168152602001908152602001600020600501856040518082805190602001908083835b602083106110885780518252602082019150602081019050602083039250611065565b6001836020036101000a03801982511681845116808217855250505050505090500191505090815260200160405180910390206000018054600181600116156101000203166002900480601f0160208091040260200160405190810160405280929190818152602001828054600181600116156101000203166002900480156111525780601f1061112757610100808354040283529160200191611152565b820191906000526020600020905b81548152906001019060200180831161113557829003601f168201915b50505050509350600160008773ffffffffffffffffffffffffffffffffffffffff1673ffffffffffffffffffffffffffffffffffffffff168152602001908152602001600020600501856040518082805190602001908083835b602083106111cf57805182526020820191506020810190506020830392506111ac565b6001836020036101000a03801982511681845116808217855250505050505090500191505090815260200160405180910390206001018054600181600116156101000203166002900480601f0160208091040260200160405190810160405280929190818152602001828054600181600116156101000203166002900480156112995780601f1061126e57610100808354040283529160200191611299565b820191906000526020600020905b81548152906001019060200180831161127c57829003601f168201915b5050505050925050509250929050565b828073ffffffffffffffffffffffffffffffffffffffff163373ffffffffffffffffffffffffffffffffffffffff16146112e257600080fd5b836112ec81611bf6565b6112f557600080fd5b8483600160008373ffffffffffffffffffffffffffffffffffffffff1673ffffffffffffffffffffffffffffffffffffffff168152602001908152602001600020600501816040518082805190602001908083835b6020831061136d578051825260208201915060208101905060208303925061134a565b6001836020036101000a038019825116818451168082178552505050505050905001915050908152602001604051809103902060020160009054906101000a900460ff16156113bb57600080fd5b604051806060016040528086815260200187815260200160011515815250600160008973ffffffffffffffffffffffffffffffffffffffff1673ffffffffffffffffffffffffffffffffffffffff168152602001908152602001600020600501866040518082805190602001908083835b6020831061144f578051825260208201915060208101905060208303925061142c565b6001836020036101000a0380198251168184511680821785525050505050509050019150509081526020016040518091039020600082015181600001908051906020019061149e929190612a17565b5060208201518160010190805190602001906114bb929190612a17565b5060408201518160020160006101000a81548160ff0219169083151502179055509050508673ffffffffffffffffffffffffffffffffffffffff167f013232407319622c653245adead3670a6dc87fb332d30280b78ac73ee3446eb28688604051808060200180602001838103835285818151815260200191508051906020019080838360005b8381101561155d578082015181840152602081019050611542565b50505050905090810190601f16801561158a5780820380516001836020036101000a031916815260200191505b50838103825284818151815260200191508051906020019080838360005b838110156115c35780820151818401526020810190506115a8565b50505050905090810190601f1680156115f05780820380516001836020036101000a031916815260200191505b5094505050505060405180910390a250505050505050565b600061161333611bf6565b1561161d57600080fd5b60023390806001815401808255809150509060018203906000526020600020016000909192909190916101000a81548173ffffffffffffffffffffffffffffffffffffffff021916908373ffffffffffffffffffffffffffffffffffffffff1602179055505084600160003373ffffffffffffffffffffffffffffffffffffffff1673ffffffffffffffffffffffffffffffffffffffff16815260200190815260200160002060000190805190602001906116d9929190612a97565b5083600160003373ffffffffffffffffffffffffffffffffffffffff1673ffffffffffffffffffffffffffffffffffffffff1681526020019081526020016000206001019080519060200190611730929190612a97565b5082600160003373ffffffffffffffffffffffffffffffffffffffff1673ffffffffffffffffffffffffffffffffffffffff1681526020019081526020016000206002019080519060200190611787929190612a97565b5081600160003373ffffffffffffffffffffffffffffffffffffffff1673ffffffffffffffffffffffffffffffffffffffff16815260200190815260200160002060030190805190602001906117de929190612a97565b50600160028054905003600160003373ffffffffffffffffffffffffffffffffffffffff1673ffffffffffffffffffffffffffffffffffffffff168152602001908152602001600020600401819055503373ffffffffffffffffffffffffffffffffffffffff167fb4e50324fc1c74f8266b84a0e45939fe1ad9fe01130e91da5e27382ffe510b2c600160003373ffffffffffffffffffffffffffffffffffffffff1673ffffffffffffffffffffffffffffffffffffffff168152602001908152602001600020600001600160003373ffffffffffffffffffffffffffffffffffffffff1673ffffffffffffffffffffffffffffffffffffffff168152602001908152602001600020600101600160003373ffffffffffffffffffffffffffffffffffffffff1673ffffffffffffffffffffffffffffffffffffffff168152602001908152602001600020600201600160003373ffffffffffffffffffffffffffffffffffffffff1673ffffffffffffffffffffffffffffffffffffffff168152602001908152602001600020600301600160003373ffffffffffffffffffffffffffffffffffffffff1673ffffffffffffffffffffffffffffffffffffffff16815260200190815260200160002060040154604051808060200180602001806020018060200186815260200185810385528a818154600181600116156101000203166002900481526020019150805460018160011615610100020316600290048015611a4c5780601f10611a2157610100808354040283529160200191611a4c565b820191906000526020600020905b815481529060010190602001808311611a2f57829003601f168201915b5050858103845289818154600181600116156101000203166002900481526020019150805460018160011615610100020316600290048015611acf5780601f10611aa457610100808354040283529160200191611acf565b820191906000526020600020905b815481529060010190602001808311611ab257829003601f168201915b5050858103835288818154600181600116156101000203166002900481526020019150805460018160011615610100020316600290048015611b525780601f10611b2757610100808354040283529160200191611b52565b820191906000526020600020905b815481529060010190602001808311611b3557829003601f168201915b5050858103825287818154600181600116156101000203166002900481526020019150805460018160011615610100020316600290048015611bd55780601f10611baa57610100808354040283529160200191611bd5565b820191906000526020600020905b815481529060010190602001808311611bb857829003601f168201915b5050995050505050505050505060405180910390a260019050949350505050565b6000806002805490501415611c0e5760009050611cb9565b8173ffffffffffffffffffffffffffffffffffffffff166002600160008573ffffffffffffffffffffffffffffffffffffffff1673ffffffffffffffffffffffffffffffffffffffff1681526020019081526020016000206004015481548110611c7457fe5b9060005260206000200160009054906101000a900473ffffffffffffffffffffffffffffffffffffffff1673ffffffffffffffffffffffffffffffffffffffff161490505b919050565b606080606080600085611cd081611bf6565b611cd957600080fd5b600160008873ffffffffffffffffffffffffffffffffffffffff1673ffffffffffffffffffffffffffffffffffffffff1681526020019081526020016000206000018054600181600116156101000203166002900480601f016020809104026020016040519081016040528092919081815260200182805460018160011615610100020316600290048015611daf5780601f10611d8457610100808354040283529160200191611daf565b820191906000526020600020905b815481529060010190602001808311611d9257829003601f168201915b50505050509550600160008873ffffffffffffffffffffffffffffffffffffffff1673ffffffffffffffffffffffffffffffffffffffff1681526020019081526020016000206001018054600181600116156101000203166002900480601f016020809104026020016040519081016040528092919081815260200182805460018160011615610100020316600290048015611e8c5780601f10611e6157610100808354040283529160200191611e8c565b820191906000526020600020905b815481529060010190602001808311611e6f57829003601f168201915b50505050509450600160008873ffffffffffffffffffffffffffffffffffffffff1673ffffffffffffffffffffffffffffffffffffffff1681526020019081526020016000206002018054600181600116156101000203166002900480601f016020809104026020016040519081016040528092919081815260200182805460018160011615610100020316600290048015611f695780601f10611f3e57610100808354040283529160200191611f69565b820191906000526020600020905b815481529060010190602001808311611f4c57829003601f168201915b50505050509350600160008873ffffffffffffffffffffffffffffffffffffffff1673ffffffffffffffffffffffffffffffffffffffff1681526020019081526020016000206003018054600181600116156101000203166002900480601f0160208091040260200160405190810160405280929190818152602001828054600181600116156101000203166002900480156120465780601f1061201b57610100808354040283529160200191612046565b820191906000526020600020905b81548152906001019060200180831161202957829003601f168201915b50505050509250600160008873ffffffffffffffffffffffffffffffffffffffff1673ffffffffffffffffffffffffffffffffffffffff1681526020019081526020016000206004015491505091939590929450565b600033905090565b6060816120b081611bf6565b6120b957600080fd5b600160008473ffffffffffffffffffffffffffffffffffffffff1673ffffffffffffffffffffffffffffffffffffffff1681526020019081526020016000206000018054600181600116156101000203166002900480601f01602080910402602001604051908101604052809291908181526020018280546001816001161561010002031660029004801561218f5780601f106121645761010080835404028352916020019161218f565b820191906000526020600020905b81548152906001019060200180831161217257829003601f168201915b5050505050915050919050565b6000809054906101000a900473ffffffffffffffffffffffffffffffffffffffff1681565b6000816121cd81611bf6565b6121d657600080fd5b600160008473ffffffffffffffffffffffffffffffffffffffff1673ffffffffffffffffffffffffffffffffffffffff16815260200190815260200160002060040154915050919050565b60608161222d81611bf6565b61223657600080fd5b600160008473ffffffffffffffffffffffffffffffffffffffff1673ffffffffffffffffffffffffffffffffffffffff1681526020019081526020016000206003018054600181600116156101000203166002900480601f01602080910402602001604051908101604052809291908181526020018280546001816001161561010002031660029004801561230c5780601f106122e15761010080835404028352916020019161230c565b820191906000526020600020905b8154815290600101906020018083116122ef57829003601f168201915b5050505050915050919050565b8282600160008373ffffffffffffffffffffffffffffffffffffffff1673ffffffffffffffffffffffffffffffffffffffff168152602001908152602001600020600501816040518082805190602001908083835b60208310612391578051825260208201915060208101905060208303925061236e565b6001836020036101000a038019825116818451168082178552505050505050905001915050908152602001604051809103902060020160009054906101000a900460ff166123de57600080fd5b604051806060016040528085815260200184815260200160011515815250600160008773ffffffffffffffffffffffffffffffffffffffff1673ffffffffffffffffffffffffffffffffffffffff168152602001908152602001600020600501856040518082805190602001908083835b60208310612472578051825260208201915060208101905060208303925061244f565b6001836020036101000a038019825116818451168082178552505050505050905001915050908152602001604051809103902060008201518160000190805190602001906124c1929190612a17565b5060208201518160010190805190602001906124de929190612a17565b5060408201518160020160006101000a81548160ff0219169083151502179055509050508473ffffffffffffffffffffffffffffffffffffffff167f013232407319622c653245adead3670a6dc87fb332d30280b78ac73ee3446eb28585604051808060200180602001838103835285818151815260200191508051906020019080838360005b83811015612580578082015181840152602081019050612565565b50505050905090810190601f1680156125ad5780820380516001836020036101000a031916815260200191505b50838103825284818151815260200191508051906020019080838360005b838110156125e65780820151818401526020810190506125cb565b50505050905090810190601f1680156126135780820380516001836020036101000a031916815260200191505b5094505050505060405180910390a25050505050565b60608161263581611bf6565b61263e57600080fd5b600160008473ffffffffffffffffffffffffffffffffffffffff1673ffffffffffffffffffffffffffffffffffffffff1681526020019081526020016000206001018054600181600116156101000203166002900480601f0160208091040260200160405190810160405280929190818152602001828054600181600116156101000203166002900480156127145780601f106126e957610100808354040283529160200191612714565b820191906000526020600020905b8154815290600101906020018083116126f757829003601f168201915b5050505050915050919050565b8181600160008373ffffffffffffffffffffffffffffffffffffffff1673ffffffffffffffffffffffffffffffffffffffff168152602001908152602001600020600501816040518082805190602001908083835b602083106127995780518252602082019150602081019050602083039250612776565b6001836020036101000a038019825116818451168082178552505050505050905001915050908152602001604051809103902060020160009054906101000a900460ff166127e657600080fd5b604051806060016040528084815260200160405180602001604052806000815250815260200160001515815250600160008673ffffffffffffffffffffffffffffffffffffffff1673ffffffffffffffffffffffffffffffffffffffff168152602001908152602001600020600501846040518082805190602001908083835b602083106128895780518252602082019150602081019050602083039250612866565b6001836020036101000a038019825116818451168082178552505050505050905001915050908152602001604051809103902060008201518160000190805190602001906128d8929190612a17565b5060208201518160010190805190602001906128f5929190612a17565b5060408201518160020160006101000a81548160ff02191690831515021790555090505050505050565b60608161292b81611bf6565b61293457600080fd5b600160008473ffffffffffffffffffffffffffffffffffffffff1673ffffffffffffffffffffffffffffffffffffffff1681526020019081526020016000206002018054600181600116156101000203166002900480601f016020809104026020016040519081016040528092919081815260200182805460018160011615610100020316600290048015612a0a5780601f106129df57610100808354040283529160200191612a0a565b820191906000526020600020905b8154815290600101906020018083116129ed57829003601f168201915b5050505050915050919050565b828054600181600116156101000203166002900490600052602060002090601f016020900481019282601f10612a5857805160ff1916838001178555612a86565b82800160010185558215612a86579182015b82811115612a85578251825591602001919060010190612a6a565b5b509050612a939190612b17565b5090565b828054600181600116156101000203166002900490600052602060002090601f016020900481019282601f10612ad857805160ff1916838001178555612b06565b82800160010185558215612b06579182015b82811115612b05578251825591602001919060010190612aea565b5b509050612b139190612b17565b5090565b612b3991905b80821115612b35576000816000905550600101612b1d565b5090565b9056fea265627a7a72315820bb04e7c35b4887dba8a1a3cf36061dc893c16419a078a258e6171156961b53f964736f6c63430005100032",
  "source": "//SPDX-License-Identifier: GPL-3.0\n\npragma solidity >= 0.5.0;\n\ncontract Identities {\n    \n    address public owner;\n    \n\n    struct Identity {\n        string firstname;\n        string lastname; \n        string nickname; \n        string ipfsAvatarHash;\n        uint index;\n        mapping(string => socialLink)  socialLinks;\n    }\n    \n    struct socialLink {\n        string name;\n        string url;\n        bool exist;\n    }\n      \n      \n        \n        \n    mapping(address => Identity) internal identities;\n    address[] identitiesAddresses;\n\n    event LogID  (address indexed IdentityAdd ,string firstname,  string lastname, string nickname,  string ipfsAvatarHash , uint index);\n    event LogSocialLink  (address indexed IdentityAdd ,string name,  string url);\n\n    constructor()  public {\n        owner = msg.sender;\n    }\n    modifier ownerOnly(address id_add){\n      require(msg.sender == id_add);\n       _;\n    }\n\n     modifier onlyIfIdExists(address id_add){\n      require(identityExist( id_add));\n       _;\n    }\n    modifier socialLinkExist(address id_add ,string memory name){\n      require(identities[id_add].socialLinks[name].exist);\n       _;\n    }\n        modifier socialLinkDoNotExist(address id_add ,string memory name){\n      require(!identities[id_add].socialLinks[name].exist);\n       _;\n    }\n\n    function identityExist(address id_add) public  view  returns(bool isIndeed) \n    {\n        if(identitiesAddresses.length == 0) return false;\n         return (identitiesAddresses[identities[id_add].index] == id_add);\n     }\n\n    function setIdentity( string memory _firstname, string memory _lastname, string memory _nickname, string memory _ipfsAvatarHash)  public  returns (bool success) {\n          \n        require(!identityExist(msg.sender));\n        identitiesAddresses.push(msg.sender);\n        identities[ msg.sender].firstname= _firstname;\n        identities[ msg.sender].lastname= _lastname;\n        identities[ msg.sender].nickname= _nickname;\n        identities[ msg.sender].ipfsAvatarHash= _ipfsAvatarHash;\n        identities[ msg.sender].index= identitiesAddresses.length-1;\n        emit LogID(msg.sender,\n            identities[ msg.sender].firstname,\n            identities[ msg.sender].lastname,\n            identities[ msg.sender].nickname,\n            identities[ msg.sender].ipfsAvatarHash,\n            identities[ msg.sender].index );\n         return true;\n\n        \n    }\n   \n     function getIdentity(address id_add)  public view onlyIfIdExists(id_add)  returns ( string memory firstname, string memory lastname, string memory nickname, string memory ipfsAvatarHash, uint index ){\n        firstname = identities[ id_add].firstname ;\n        lastname = identities[ id_add].lastname;\n        nickname =   identities[ id_add].nickname;\n        ipfsAvatarHash =   identities[ id_add].ipfsAvatarHash ;\n        index=identities[id_add].index;\n\n    }\n    \n    function getfirstname( address id_add) public view onlyIfIdExists(  id_add)   returns (string memory) {\n        return identities[ id_add].firstname;\n    }\n    \n    \n       function getmsgsender( ) public view returns (address) {\n        return msg.sender;\n    }\n    \n    function getlastname( address id_add) public view onlyIfIdExists(  id_add)   returns (string memory) {\n        return identities[ id_add].lastname;\n    }\n    \n    function getnickname( address id_add) public view onlyIfIdExists(  id_add)   returns (string memory) {\n        return identities[ id_add].nickname;\n    }\n    \n    function getIpfsAvatarHash( address id_add) public view onlyIfIdExists(  id_add)   returns (string memory) {\n        return identities[ id_add].ipfsAvatarHash;\n    }\n    \n    function getIndex( address id_add) public view onlyIfIdExists(  id_add)   returns (uint ) {\n        return identities[ id_add].index;\n    }\n    \n    function addSocialLink ( address id_add , string memory _url, string memory _name)   public ownerOnly(id_add)  onlyIfIdExists (id_add) socialLinkDoNotExist  (id_add, _name) {\n        \n         identities[  id_add].socialLinks[_name] =  socialLink (_name,_url,true );\n                emit LogSocialLink( id_add, _name, _url);\n\n    }\n    \n    function getSocialLinkByName(address id_add ,string  memory _name) public view socialLinkExist(id_add, _name) returns (string memory name, string memory url) {\n        name= identities[ id_add].socialLinks[_name].name;\n        url=identities[id_add].socialLinks[_name].url;\n       \n    }\n        \n    function removeSocialLink( address id_add ,string memory _name)  socialLinkExist(id_add, _name) public {\n       identities[ id_add].socialLinks[_name] = socialLink(_name, \"\", false);\n    }\n    \n    function updateSocialLink( address id_add, string memory _name, string memory _url)  socialLinkExist(id_add, _name) public {\n       identities[ id_add].socialLinks[_name] = socialLink(_name, _url, true);\n       emit LogSocialLink(id_add, _name, _url);\n    }\n}",
  "sourcePath": "/home/nour/work/IdentityProject/IdentityTruffle/contracts/Identity.sol",
  "compiler": {
    "name": "solc",
    "version": "0.5.16+commit.9c3226ce.Emscripten.clang"
  },
  "schemaVersion": "3.4.1",
  "updatedAt": "2021-08-17T00:20:28.896Z",
  "devdoc": {
    "methods": {}
  },
  "userdoc": {
    "methods": {}
  }
}