{
  "contractName": "Identities",
  "abi": [
    {
      "inputs": [],
      "payable": false,
      "stateMutability": "nonpayable",
      "type": "constructor"
    },
    {
      "anonymous": false,
      "inputs": [
        {
          "indexed": true,
          "internalType": "address",
          "name": "IdentityAdd",
          "type": "address"
        },
        {
          "indexed": false,
          "internalType": "string",
          "name": "firstname",
          "type": "string"
        },
        {
          "indexed": false,
          "internalType": "string",
          "name": "lastname",
          "type": "string"
        },
        {
          "indexed": false,
          "internalType": "string",
          "name": "nickname",
          "type": "string"
        },
        {
          "indexed": false,
          "internalType": "string",
          "name": "ipfsAvatarHash",
          "type": "string"
        },
        {
          "indexed": false,
          "internalType": "uint256",
          "name": "index",
          "type": "uint256"
        }
      ],
      "name": "LogID",
      "type": "event"
    },
    {
      "anonymous": false,
      "inputs": [
        {
          "indexed": true,
          "internalType": "address",
          "name": "IdentityAdd",
          "type": "address"
        },
        {
          "indexed": false,
          "internalType": "string",
          "name": "name",
          "type": "string"
        },
        {
          "indexed": false,
          "internalType": "string",
          "name": "url",
          "type": "string"
        }
      ],
      "name": "LogSocialLink",
      "type": "event"
    },
    {
      "constant": true,
      "inputs": [],
      "name": "owner",
      "outputs": [
        {
          "internalType": "address",
          "name": "",
          "type": "address"
        }
      ],
      "payable": false,
      "stateMutability": "view",
      "type": "function"
    },
    {
      "constant": false,
      "inputs": [
        {
          "internalType": "address",
          "name": "id_add",
          "type": "address"
        }
      ],
      "name": "identityExist",
      "outputs": [
        {
          "internalType": "bool",
          "name": "isIndeed",
          "type": "bool"
        }
      ],
      "payable": false,
      "stateMutability": "nonpayable",
      "type": "function"
    },
    {
      "constant": false,
      "inputs": [
        {
          "internalType": "string",
          "name": "_firstname",
          "type": "string"
        },
        {
          "internalType": "string",
          "name": "_lastname",
          "type": "string"
        },
        {
          "internalType": "string",
          "name": "_nickname",
          "type": "string"
        },
        {
          "internalType": "string",
          "name": "_ipfsAvatarHash",
          "type": "string"
        }
      ],
      "name": "setIdentity",
      "outputs": [
        {
          "internalType": "bool",
          "name": "success",
          "type": "bool"
        }
      ],
      "payable": false,
      "stateMutability": "nonpayable",
      "type": "function"
    },
    {
      "constant": false,
      "inputs": [],
      "name": "getIdentity",
      "outputs": [
        {
          "internalType": "string",
          "name": "_firstname",
          "type": "string"
        },
        {
          "internalType": "string",
          "name": "_lastname",
          "type": "string"
        },
        {
          "internalType": "string",
          "name": "_nickname",
          "type": "string"
        },
        {
          "internalType": "string",
          "name": "_ipfsAvatarHash",
          "type": "string"
        },
        {
          "internalType": "uint256",
          "name": "_index",
          "type": "uint256"
        }
      ],
      "payable": false,
      "stateMutability": "nonpayable",
      "type": "function"
    },
    {
      "constant": false,
      "inputs": [],
      "name": "getfirstname",
      "outputs": [
        {
          "internalType": "string",
          "name": "",
          "type": "string"
        }
      ],
      "payable": false,
      "stateMutability": "nonpayable",
      "type": "function"
    },
    {
      "constant": false,
      "inputs": [],
      "name": "getlastname",
      "outputs": [
        {
          "internalType": "string",
          "name": "",
          "type": "string"
        }
      ],
      "payable": false,
      "stateMutability": "nonpayable",
      "type": "function"
    },
    {
      "constant": false,
      "inputs": [],
      "name": "getnickname",
      "outputs": [
        {
          "internalType": "string",
          "name": "",
          "type": "string"
        }
      ],
      "payable": false,
      "stateMutability": "nonpayable",
      "type": "function"
    },
    {
      "constant": false,
      "inputs": [],
      "name": "getIpfsAvatarHash",
      "outputs": [
        {
          "internalType": "string",
          "name": "",
          "type": "string"
        }
      ],
      "payable": false,
      "stateMutability": "nonpayable",
      "type": "function"
    },
    {
      "constant": false,
      "inputs": [],
      "name": "getIndex",
      "outputs": [
        {
          "internalType": "uint256",
          "name": "",
          "type": "uint256"
        }
      ],
      "payable": false,
      "stateMutability": "nonpayable",
      "type": "function"
    },
    {
      "constant": false,
      "inputs": [
        {
          "internalType": "string",
          "name": "_url",
          "type": "string"
        },
        {
          "internalType": "string",
          "name": "_name",
          "type": "string"
        }
      ],
      "name": "addSocialLink",
      "outputs": [],
      "payable": false,
      "stateMutability": "nonpayable",
      "type": "function"
    },
    {
      "constant": false,
      "inputs": [
        {
          "internalType": "string",
          "name": "_name",
          "type": "string"
        }
      ],
      "name": "getSocialLinkByName",
      "outputs": [
        {
          "internalType": "string",
          "name": "",
          "type": "string"
        },
        {
          "internalType": "string",
          "name": "",
          "type": "string"
        }
      ],
      "payable": false,
      "stateMutability": "nonpayable",
      "type": "function"
    },
    {
      "constant": false,
      "inputs": [
        {
          "internalType": "string",
          "name": "_name",
          "type": "string"
        }
      ],
      "name": "removeSocialLink",
      "outputs": [],
      "payable": false,
      "stateMutability": "nonpayable",
      "type": "function"
    },
    {
      "constant": false,
      "inputs": [
        {
          "internalType": "string",
          "name": "_name",
          "type": "string"
        },
        {
          "internalType": "string",
          "name": "_url",
          "type": "string"
        }
      ],
      "name": "updateSocialLink",
      "outputs": [],
      "payable": false,
      "stateMutability": "nonpayable",
      "type": "function"
    }
  ],
  "bytecode": "0x608060405234801561001057600080fd5b50336000806101000a81548173ffffffffffffffffffffffffffffffffffffffff021916908373ffffffffffffffffffffffffffffffffffffffff160217905550612e85806100606000396000f3fe608060405234801561001057600080fd5b50600436106100cf5760003560e01c806381045ead1161008c578063a5f087ec11610066578063a5f087ec14610927578063add304d214610a79578063cf15a9a414610b34578063d9d3fa6414610bb7576100cf565b806381045ead1461083c5780638da5cb5b1461085a578063a329f461146108a4576100cf565b806309f9f702146100d45780630f2f5604146102745780631a3fcede1461050c57806336afc6fa1461056857806346337eca1461073657806356c1fa76146107b9575b600080fd5b61018d600480360360208110156100ea57600080fd5b810190808035906020019064010000000081111561010757600080fd5b82018360208201111561011957600080fd5b8035906020019184600183028401116401000000008311171561013b57600080fd5b91908080601f016020809104026020016040519081016040528093929190818152602001838380828437600081840152601f19601f820116905080830192505050505050509192919290505050610d09565b604051808060200180602001838103835285818151815260200191508051906020019080838360005b838110156101d15780820151818401526020810190506101b6565b50505050905090810190601f1680156101fe5780820380516001836020036101000a031916815260200191505b50838103825284818151815260200191508051906020019080838360005b8381101561023757808201518184015260208101905061021c565b50505050905090810190601f1680156102645780820380516001836020036101000a031916815260200191505b5094505050505060405180910390f35b6104f26004803603608081101561028a57600080fd5b81019080803590602001906401000000008111156102a757600080fd5b8201836020820111156102b957600080fd5b803590602001918460018302840111640100000000831117156102db57600080fd5b91908080601f016020809104026020016040519081016040528093929190818152602001838380828437600081840152601f19601f8201169050808301925050505050505091929192908035906020019064010000000081111561033e57600080fd5b82018360208201111561035057600080fd5b8035906020019184600183028401116401000000008311171561037257600080fd5b91908080601f016020809104026020016040519081016040528093929190818152602001838380828437600081840152601f19601f820116905080830192505050505050509192919290803590602001906401000000008111156103d557600080fd5b8201836020820111156103e757600080fd5b8035906020019184600183028401116401000000008311171561040957600080fd5b91908080601f016020809104026020016040519081016040528093929190818152602001838380828437600081840152601f19601f8201169050808301925050505050505091929192908035906020019064010000000081111561046c57600080fd5b82018360208201111561047e57600080fd5b803590602001918460018302840111640100000000831117156104a057600080fd5b91908080601f016020809104026020016040519081016040528093929190818152602001838380828437600081840152601f19601f8201169050808301925050505050505091929192905050506110cf565b604051808215151515815260200191505060405180910390f35b61054e6004803603602081101561052257600080fd5b81019080803573ffffffffffffffffffffffffffffffffffffffff16906020019092919050505061186a565b604051808215151515815260200191505060405180910390f35b610570611932565b604051808060200180602001806020018060200186815260200185810385528a818151815260200191508051906020019080838360005b838110156105c25780820151818401526020810190506105a7565b50505050905090810190601f1680156105ef5780820380516001836020036101000a031916815260200191505b50858103845289818151815260200191508051906020019080838360005b8381101561062857808201518184015260208101905061060d565b50505050905090810190601f1680156106555780820380516001836020036101000a031916815260200191505b50858103835288818151815260200191508051906020019080838360005b8381101561068e578082015181840152602081019050610673565b50505050905090810190601f1680156106bb5780820380516001836020036101000a031916815260200191505b50858103825287818151815260200191508051906020019080838360005b838110156106f45780820151818401526020810190506106d9565b50505050905090810190601f1680156107215780820380516001836020036101000a031916815260200191505b50995050505050505050505060405180910390f35b61073e611dd4565b6040518080602001828103825283818151815260200191508051906020019080838360005b8381101561077e578082015181840152602081019050610763565b50505050905090810190601f1680156107ab5780820380516001836020036101000a031916815260200191505b509250505060405180910390f35b6107c1611f0c565b6040518080602001828103825283818151815260200191508051906020019080838360005b838110156108015780820151818401526020810190506107e6565b50505050905090810190601f16801561082e5780820380516001836020036101000a031916815260200191505b509250505060405180910390f35b610844612044565b6040518082815260200191505060405180910390f35b6108626120e4565b604051808273ffffffffffffffffffffffffffffffffffffffff1673ffffffffffffffffffffffffffffffffffffffff16815260200191505060405180910390f35b6108ac612109565b6040518080602001828103825283818151815260200191508051906020019080838360005b838110156108ec5780820151818401526020810190506108d1565b50505050905090810190601f1680156109195780820380516001836020036101000a031916815260200191505b509250505060405180910390f35b610a776004803603604081101561093d57600080fd5b810190808035906020019064010000000081111561095a57600080fd5b82018360208201111561096c57600080fd5b8035906020019184600183028401116401000000008311171561098e57600080fd5b91908080601f016020809104026020016040519081016040528093929190818152602001838380828437600081840152601f19601f820116905080830192505050505050509192919290803590602001906401000000008111156109f157600080fd5b820183602082011115610a0357600080fd5b80359060200191846001830284011164010000000083111715610a2557600080fd5b91908080601f016020809104026020016040519081016040528093929190818152602001838380828437600081840152601f19601f820116905080830192505050505050509192919290505050612241565b005b610b3260048036036020811015610a8f57600080fd5b8101908080359060200190640100000000811115610aac57600080fd5b820183602082011115610abe57600080fd5b80359060200191846001830284011164010000000083111715610ae057600080fd5b91908080601f016020809104026020016040519081016040528093929190818152602001838380828437600081840152601f19601f8201169050808301925050505050505091929192905050506125b3565b005b610b3c6127f2565b6040518080602001828103825283818151815260200191508051906020019080838360005b83811015610b7c578082015181840152602081019050610b61565b50505050905090810190601f168015610ba95780820380516001836020036101000a031916815260200191505b509250505060405180910390f35b610d0760048036036040811015610bcd57600080fd5b8101908080359060200190640100000000811115610bea57600080fd5b820183602082011115610bfc57600080fd5b80359060200191846001830284011164010000000083111715610c1e57600080fd5b91908080601f016020809104026020016040519081016040528093929190818152602001838380828437600081840152601f19601f82011690508083019250505050505050919291929080359060200190640100000000811115610c8157600080fd5b820183602082011115610c9357600080fd5b80359060200191846001830284011164010000000083111715610cb557600080fd5b91908080601f016020809104026020016040519081016040528093929190818152602001838380828437600081840152601f19601f82011690508083019250505050505050919291929050505061292a565b005b6060806000809054906101000a900473ffffffffffffffffffffffffffffffffffffffff1683600160008373ffffffffffffffffffffffffffffffffffffffff1673ffffffffffffffffffffffffffffffffffffffff168152602001908152602001600020600501816040518082805190602001908083835b60208310610da55780518252602082019150602081019050602083039250610d82565b6001836020036101000a038019825116818451168082178552505050505050905001915050908152602001604051809103902060020160009054906101000a900460ff16610df257600080fd5b600160008060009054906101000a900473ffffffffffffffffffffffffffffffffffffffff1673ffffffffffffffffffffffffffffffffffffffff1673ffffffffffffffffffffffffffffffffffffffff168152602001908152602001600020600501856040518082805190602001908083835b60208310610e895780518252602082019150602081019050602083039250610e66565b6001836020036101000a0380198251168184511680821785525050505050509050019150509081526020016040518091039020600001600160008060009054906101000a900473ffffffffffffffffffffffffffffffffffffffff1673ffffffffffffffffffffffffffffffffffffffff1673ffffffffffffffffffffffffffffffffffffffff168152602001908152602001600020600501866040518082805190602001908083835b60208310610f565780518252602082019150602081019050602083039250610f33565b6001836020036101000a0380198251168184511680821785525050505050509050019150509081526020016040518091039020600101818054600181600116156101000203166002900480601f0160208091040260200160405190810160405280929190818152602001828054600181600116156101000203166002900480156110215780601f10610ff657610100808354040283529160200191611021565b820191906000526020600020905b81548152906001019060200180831161100457829003601f168201915b50505050509150808054600181600116156101000203166002900480601f0160208091040260200160405190810160405280929190818152602001828054600181600116156101000203166002900480156110bd5780601f10611092576101008083540402835291602001916110bd565b820191906000526020600020905b8154815290600101906020018083116110a057829003601f168201915b50505050509050935093505050915091565b60006110fb6000809054906101000a900473ffffffffffffffffffffffffffffffffffffffff1661186a565b1561110557600080fd5b60026000809054906101000a900473ffffffffffffffffffffffffffffffffffffffff1690806001815401808255809150509060018203906000526020600020016000909192909190916101000a81548173ffffffffffffffffffffffffffffffffffffffff021916908373ffffffffffffffffffffffffffffffffffffffff1602179055505084600160008060009054906101000a900473ffffffffffffffffffffffffffffffffffffffff1673ffffffffffffffffffffffffffffffffffffffff1673ffffffffffffffffffffffffffffffffffffffff1681526020019081526020016000206000019080519060200190611203929190612d2b565b5083600160008060009054906101000a900473ffffffffffffffffffffffffffffffffffffffff1673ffffffffffffffffffffffffffffffffffffffff1673ffffffffffffffffffffffffffffffffffffffff168152602001908152602001600020600101908051906020019061127b929190612d2b565b5082600160008060009054906101000a900473ffffffffffffffffffffffffffffffffffffffff1673ffffffffffffffffffffffffffffffffffffffff1673ffffffffffffffffffffffffffffffffffffffff16815260200190815260200160002060020190805190602001906112f3929190612d2b565b5081600160008060009054906101000a900473ffffffffffffffffffffffffffffffffffffffff1673ffffffffffffffffffffffffffffffffffffffff1673ffffffffffffffffffffffffffffffffffffffff168152602001908152602001600020600301908051906020019061136b929190612d2b565b50600160028054905003600160008060009054906101000a900473ffffffffffffffffffffffffffffffffffffffff1673ffffffffffffffffffffffffffffffffffffffff1673ffffffffffffffffffffffffffffffffffffffff168152602001908152602001600020600401819055506000809054906101000a900473ffffffffffffffffffffffffffffffffffffffff1673ffffffffffffffffffffffffffffffffffffffff167fb4e50324fc1c74f8266b84a0e45939fe1ad9fe01130e91da5e27382ffe510b2c600160008060009054906101000a900473ffffffffffffffffffffffffffffffffffffffff1673ffffffffffffffffffffffffffffffffffffffff1673ffffffffffffffffffffffffffffffffffffffff168152602001908152602001600020600001600160008060009054906101000a900473ffffffffffffffffffffffffffffffffffffffff1673ffffffffffffffffffffffffffffffffffffffff1673ffffffffffffffffffffffffffffffffffffffff168152602001908152602001600020600101600160008060009054906101000a900473ffffffffffffffffffffffffffffffffffffffff1673ffffffffffffffffffffffffffffffffffffffff1673ffffffffffffffffffffffffffffffffffffffff168152602001908152602001600020600201600160008060009054906101000a900473ffffffffffffffffffffffffffffffffffffffff1673ffffffffffffffffffffffffffffffffffffffff1673ffffffffffffffffffffffffffffffffffffffff168152602001908152602001600020600301600160008060009054906101000a900473ffffffffffffffffffffffffffffffffffffffff1673ffffffffffffffffffffffffffffffffffffffff1673ffffffffffffffffffffffffffffffffffffffff16815260200190815260200160002060040154604051808060200180602001806020018060200186815260200185810385528a8181546001816001161561010002031660029004815260200191508054600181600116156101000203166002900480156116c05780601f10611695576101008083540402835291602001916116c0565b820191906000526020600020905b8154815290600101906020018083116116a357829003601f168201915b50508581038452898181546001816001161561010002031660029004815260200191508054600181600116156101000203166002900480156117435780601f1061171857610100808354040283529160200191611743565b820191906000526020600020905b81548152906001019060200180831161172657829003601f168201915b50508581038352888181546001816001161561010002031660029004815260200191508054600181600116156101000203166002900480156117c65780601f1061179b576101008083540402835291602001916117c6565b820191906000526020600020905b8154815290600101906020018083116117a957829003601f168201915b50508581038252878181546001816001161561010002031660029004815260200191508054600181600116156101000203166002900480156118495780601f1061181e57610100808354040283529160200191611849565b820191906000526020600020905b81548152906001019060200180831161182c57829003601f168201915b5050995050505050505050505060405180910390a260019050949350505050565b6000806002805490501415611882576000905061192d565b8173ffffffffffffffffffffffffffffffffffffffff166002600160008573ffffffffffffffffffffffffffffffffffffffff1673ffffffffffffffffffffffffffffffffffffffff16815260200190815260200160002060040154815481106118e857fe5b9060005260206000200160009054906101000a900473ffffffffffffffffffffffffffffffffffffffff1673ffffffffffffffffffffffffffffffffffffffff161490505b919050565b60608060608060008060009054906101000a900473ffffffffffffffffffffffffffffffffffffffff166119658161186a565b61196e57600080fd5b600160008060009054906101000a900473ffffffffffffffffffffffffffffffffffffffff1673ffffffffffffffffffffffffffffffffffffffff1673ffffffffffffffffffffffffffffffffffffffff1681526020019081526020016000206000018054600181600116156101000203166002900480601f016020809104026020016040519081016040528092919081815260200182805460018160011615610100020316600290048015611a655780601f10611a3a57610100808354040283529160200191611a65565b820191906000526020600020905b815481529060010190602001808311611a4857829003601f168201915b50505050509550600160008060009054906101000a900473ffffffffffffffffffffffffffffffffffffffff1673ffffffffffffffffffffffffffffffffffffffff1673ffffffffffffffffffffffffffffffffffffffff1681526020019081526020016000206001018054600181600116156101000203166002900480601f016020809104026020016040519081016040528092919081815260200182805460018160011615610100020316600290048015611b635780601f10611b3857610100808354040283529160200191611b63565b820191906000526020600020905b815481529060010190602001808311611b4657829003601f168201915b50505050509450600160008060009054906101000a900473ffffffffffffffffffffffffffffffffffffffff1673ffffffffffffffffffffffffffffffffffffffff1673ffffffffffffffffffffffffffffffffffffffff1681526020019081526020016000206002018054600181600116156101000203166002900480601f016020809104026020016040519081016040528092919081815260200182805460018160011615610100020316600290048015611c615780601f10611c3657610100808354040283529160200191611c61565b820191906000526020600020905b815481529060010190602001808311611c4457829003601f168201915b50505050509350600160008060009054906101000a900473ffffffffffffffffffffffffffffffffffffffff1673ffffffffffffffffffffffffffffffffffffffff1673ffffffffffffffffffffffffffffffffffffffff1681526020019081526020016000206003018054600181600116156101000203166002900480601f016020809104026020016040519081016040528092919081815260200182805460018160011615610100020316600290048015611d5f5780601f10611d3457610100808354040283529160200191611d5f565b820191906000526020600020905b815481529060010190602001808311611d4257829003601f168201915b50505050509250600160008060009054906101000a900473ffffffffffffffffffffffffffffffffffffffff1673ffffffffffffffffffffffffffffffffffffffff1673ffffffffffffffffffffffffffffffffffffffff168152602001908152602001600020600401549150509091929394565b60606000809054906101000a900473ffffffffffffffffffffffffffffffffffffffff16611e018161186a565b611e0a57600080fd5b600160008060009054906101000a900473ffffffffffffffffffffffffffffffffffffffff1673ffffffffffffffffffffffffffffffffffffffff1673ffffffffffffffffffffffffffffffffffffffff1681526020019081526020016000206002018054600181600116156101000203166002900480601f016020809104026020016040519081016040528092919081815260200182805460018160011615610100020316600290048015611f015780601f10611ed657610100808354040283529160200191611f01565b820191906000526020600020905b815481529060010190602001808311611ee457829003601f168201915b505050505091505090565b60606000809054906101000a900473ffffffffffffffffffffffffffffffffffffffff16611f398161186a565b611f4257600080fd5b600160008060009054906101000a900473ffffffffffffffffffffffffffffffffffffffff1673ffffffffffffffffffffffffffffffffffffffff1673ffffffffffffffffffffffffffffffffffffffff1681526020019081526020016000206000018054600181600116156101000203166002900480601f0160208091040260200160405190810160405280929190818152602001828054600181600116156101000203166002900480156120395780601f1061200e57610100808354040283529160200191612039565b820191906000526020600020905b81548152906001019060200180831161201c57829003601f168201915b505050505091505090565b60008060009054906101000a900473ffffffffffffffffffffffffffffffffffffffff166120718161186a565b61207a57600080fd5b600160008060009054906101000a900473ffffffffffffffffffffffffffffffffffffffff1673ffffffffffffffffffffffffffffffffffffffff1673ffffffffffffffffffffffffffffffffffffffff1681526020019081526020016000206004015491505090565b6000809054906101000a900473ffffffffffffffffffffffffffffffffffffffff1681565b60606000809054906101000a900473ffffffffffffffffffffffffffffffffffffffff166121368161186a565b61213f57600080fd5b600160008060009054906101000a900473ffffffffffffffffffffffffffffffffffffffff1673ffffffffffffffffffffffffffffffffffffffff1673ffffffffffffffffffffffffffffffffffffffff1681526020019081526020016000206001018054600181600116156101000203166002900480601f0160208091040260200160405190810160405280929190818152602001828054600181600116156101000203166002900480156122365780601f1061220b57610100808354040283529160200191612236565b820191906000526020600020905b81548152906001019060200180831161221957829003601f168201915b505050505091505090565b6000809054906101000a900473ffffffffffffffffffffffffffffffffffffffff1682600160008373ffffffffffffffffffffffffffffffffffffffff1673ffffffffffffffffffffffffffffffffffffffff168152602001908152602001600020600501816040518082805190602001908083835b602083106122da57805182526020820191506020810190506020830392506122b7565b6001836020036101000a038019825116818451168082178552505050505050905001915050908152602001604051809103902060020160009054906101000a900460ff1661232757600080fd5b604051806060016040528085815260200184815260200160011515815250600160008060009054906101000a900473ffffffffffffffffffffffffffffffffffffffff1673ffffffffffffffffffffffffffffffffffffffff1673ffffffffffffffffffffffffffffffffffffffff168152602001908152602001600020600501856040518082805190602001908083835b602083106123dc57805182526020820191506020810190506020830392506123b9565b6001836020036101000a0380198251168184511680821785525050505050509050019150509081526020016040518091039020600082015181600001908051906020019061242b929190612dab565b506020820151816001019080519060200190612448929190612dab565b5060408201518160020160006101000a81548160ff0219169083151502179055509050506000809054906101000a900473ffffffffffffffffffffffffffffffffffffffff1673ffffffffffffffffffffffffffffffffffffffff167f013232407319622c653245adead3670a6dc87fb332d30280b78ac73ee3446eb28585604051808060200180602001838103835285818151815260200191508051906020019080838360005b8381101561250b5780820151818401526020810190506124f0565b50505050905090810190601f1680156125385780820380516001836020036101000a031916815260200191505b50838103825284818151815260200191508051906020019080838360005b83811015612571578082015181840152602081019050612556565b50505050905090810190601f16801561259e5780820380516001836020036101000a031916815260200191505b5094505050505060405180910390a250505050565b6000809054906101000a900473ffffffffffffffffffffffffffffffffffffffff1681600160008373ffffffffffffffffffffffffffffffffffffffff1673ffffffffffffffffffffffffffffffffffffffff168152602001908152602001600020600501816040518082805190602001908083835b6020831061264c5780518252602082019150602081019050602083039250612629565b6001836020036101000a038019825116818451168082178552505050505050905001915050908152602001604051809103902060020160009054906101000a900460ff1661269957600080fd5b604051806060016040528084815260200160405180602001604052806000815250815260200160001515815250600160008060009054906101000a900473ffffffffffffffffffffffffffffffffffffffff1673ffffffffffffffffffffffffffffffffffffffff1673ffffffffffffffffffffffffffffffffffffffff168152602001908152602001600020600501846040518082805190602001908083835b6020831061275d578051825260208201915060208101905060208303925061273a565b6001836020036101000a038019825116818451168082178552505050505050905001915050908152602001604051809103902060008201518160000190805190602001906127ac929190612dab565b5060208201518160010190805190602001906127c9929190612dab565b5060408201518160020160006101000a81548160ff021916908315150217905550905050505050565b60606000809054906101000a900473ffffffffffffffffffffffffffffffffffffffff1661281f8161186a565b61282857600080fd5b600160008060009054906101000a900473ffffffffffffffffffffffffffffffffffffffff1673ffffffffffffffffffffffffffffffffffffffff1673ffffffffffffffffffffffffffffffffffffffff1681526020019081526020016000206003018054600181600116156101000203166002900480601f01602080910402602001604051908101604052809291908181526020018280546001816001161561010002031660029004801561291f5780601f106128f45761010080835404028352916020019161291f565b820191906000526020600020905b81548152906001019060200180831161290257829003601f168201915b505050505091505090565b6000809054906101000a900473ffffffffffffffffffffffffffffffffffffffff1673ffffffffffffffffffffffffffffffffffffffff163373ffffffffffffffffffffffffffffffffffffffff161461298357600080fd5b6000809054906101000a900473ffffffffffffffffffffffffffffffffffffffff166129ae8161186a565b6129b757600080fd5b6000809054906101000a900473ffffffffffffffffffffffffffffffffffffffff1682600160008373ffffffffffffffffffffffffffffffffffffffff1673ffffffffffffffffffffffffffffffffffffffff168152602001908152602001600020600501816040518082805190602001908083835b60208310612a505780518252602082019150602081019050602083039250612a2d565b6001836020036101000a038019825116818451168082178552505050505050905001915050908152602001604051809103902060020160009054906101000a900460ff1615612a9e57600080fd5b604051806060016040528085815260200186815260200160011515815250600160008060009054906101000a900473ffffffffffffffffffffffffffffffffffffffff1673ffffffffffffffffffffffffffffffffffffffff1673ffffffffffffffffffffffffffffffffffffffff168152602001908152602001600020600501856040518082805190602001908083835b60208310612b535780518252602082019150602081019050602083039250612b30565b6001836020036101000a03801982511681845116808217855250505050505090500191505090815260200160405180910390206000820151816000019080519060200190612ba2929190612dab565b506020820151816001019080519060200190612bbf929190612dab565b5060408201518160020160006101000a81548160ff0219169083151502179055509050506000809054906101000a900473ffffffffffffffffffffffffffffffffffffffff1673ffffffffffffffffffffffffffffffffffffffff167f013232407319622c653245adead3670a6dc87fb332d30280b78ac73ee3446eb28587604051808060200180602001838103835285818151815260200191508051906020019080838360005b83811015612c82578082015181840152602081019050612c67565b50505050905090810190601f168015612caf5780820380516001836020036101000a031916815260200191505b50838103825284818151815260200191508051906020019080838360005b83811015612ce8578082015181840152602081019050612ccd565b50505050905090810190601f168015612d155780820380516001836020036101000a031916815260200191505b5094505050505060405180910390a25050505050565b828054600181600116156101000203166002900490600052602060002090601f016020900481019282601f10612d6c57805160ff1916838001178555612d9a565b82800160010185558215612d9a579182015b82811115612d99578251825591602001919060010190612d7e565b5b509050612da79190612e2b565b5090565b828054600181600116156101000203166002900490600052602060002090601f016020900481019282601f10612dec57805160ff1916838001178555612e1a565b82800160010185558215612e1a579182015b82811115612e19578251825591602001919060010190612dfe565b5b509050612e279190612e2b565b5090565b612e4d91905b80821115612e49576000816000905550600101612e31565b5090565b9056fea265627a7a72315820cbdce2483214662cc032e450b860bf6be85178b389bc6ba0f5331d98f22194e164736f6c63430005100032",
  "source": "// SPDX-License-Identifier: GPL-3.0\n\npragma solidity >= 0.5.0;\n\ncontract Identities {\n    \n    address public owner;\n    \n\n    struct Identity {\n        string firstname;\n        string lastname; \n        string nickname; \n        string ipfsAvatarHash;\n        uint index;\n        mapping(string => socialLink)  socialLinks;\n    }\n    \n    struct socialLink {\n        string name;\n        string url;\n        bool exist;\n    }\n        \n        \n    mapping(address => Identity) internal identities;\n    address[] identitiesAddresses;\n\n    event LogID  (address indexed IdentityAdd ,string firstname,  string lastname, string nickname,  string ipfsAvatarHash , uint index);\n    event LogSocialLink  (address indexed IdentityAdd ,string name,  string url);\n\n    constructor()  public {\n        owner = msg.sender;\n    }\n    modifier ownerOnly(){\n      require(msg.sender == owner);\n       _;\n    }\n     modifier onlyIfIdExists(address id_add){\n      require(identityExist( id_add));\n       _;\n    }\n    modifier socialLinkExist(address id_add ,string memory name){\n      require(identities[id_add].socialLinks[name].exist);\n       _;\n    }\n        modifier socialLinkDoNotExist(address id_add ,string memory name){\n      require(!identities[id_add].socialLinks[name].exist);\n       _;\n    }\n\n    function identityExist(address id_add) public   returns(bool isIndeed) \n    {\n        if(identitiesAddresses.length == 0) return false;\n         return (identitiesAddresses[identities[id_add].index] == id_add);\n     }\n\n    function setIdentity(string memory _firstname, string memory _lastname, string memory _nickname, string memory _ipfsAvatarHash)  public  returns (bool success) {\n          \n        require(!identityExist(owner));\n        identitiesAddresses.push(owner);\n        identities[ owner].firstname= _firstname;\n        identities[ owner].lastname= _lastname;\n        identities[ owner].nickname= _nickname;\n        identities[ owner].ipfsAvatarHash= _ipfsAvatarHash;\n        identities[ owner].index= identitiesAddresses.length-1;\n        emit LogID(owner,\n            identities[ owner].firstname,\n            identities[ owner].lastname,\n            identities[ owner].nickname,\n            identities[ owner].ipfsAvatarHash,\n            identities[ owner].index );\n         return true;\n\n        \n    }\n   \n     function getIdentity()  public onlyIfIdExists(owner)  returns (string memory _firstname, string memory _lastname, string memory _nickname, string memory _ipfsAvatarHash, uint _index ){\n        _firstname = identities[ owner].firstname ;\n        _lastname = identities[ owner].lastname;\n        _nickname =   identities[ owner].nickname;\n        _ipfsAvatarHash =   identities[ owner].ipfsAvatarHash ;\n        _index=identities[owner].index;\n\n    }\n    function getfirstname() public onlyIfIdExists(owner)   returns (string memory) {\n        return identities[owner].firstname;\n    }\n    \n    function getlastname() public onlyIfIdExists(owner)   returns (string memory) {\n        return identities[owner].lastname;\n    }\n    \n    function getnickname() public onlyIfIdExists(owner)   returns (string memory) {\n        return identities[owner].nickname;\n    }\n    \n    function getIpfsAvatarHash() public onlyIfIdExists(owner)   returns (string memory) {\n        return identities[owner].ipfsAvatarHash;\n    }\n    function getIndex() public onlyIfIdExists(owner)   returns (uint ) {\n        return identities[owner].index;\n    }\n    \n    function addSocialLink ( string memory _url, string memory _name)   public ownerOnly  onlyIfIdExists (owner) socialLinkDoNotExist  (owner, _name) {\n        \n         identities[ owner].socialLinks[_name] =  socialLink (_name,_url,true );\n                emit LogSocialLink(owner, _name, _url);\n\n    }\n    \n    function getSocialLinkByName(string  memory _name) public  socialLinkExist(owner, _name) returns (string memory, string memory) {\n        \n       return( identities[ owner].socialLinks[_name].name, identities[ owner].socialLinks[_name].url);\n       \n    }\n        \n    function removeSocialLink( string memory _name)  socialLinkExist(owner, _name) public {\n       identities[ owner].socialLinks[_name] = socialLink(_name, \"\", false);\n    }\n    function updateSocialLink( string memory _name, string memory _url)  socialLinkExist(owner, _name) public {\n       identities[ owner].socialLinks[_name] = socialLink(_name, _url, true);\n       emit LogSocialLink(owner, _name, _url);\n    }\n}",
  "sourcePath": "/home/nour/Desktop/IdentityProject/IdentityTruffle/contracts/Identity.sol",
  "compiler": {
    "name": "solc",
    "version": "0.5.16+commit.9c3226ce.Emscripten.clang"
  },
  "schemaVersion": "3.4.1",
  "updatedAt": "2021-07-28T02:56:09.298Z",
  "networkType": "ethereum",
  "devdoc": {
    "methods": {}
  },
  "userdoc": {
    "methods": {}
  }
}